:100472004800110C172230000000004800086E7A74
:10048200742100000000420002003C420000001AF9
:10049200420004000B42000600584C001900000004
:0904A20000000000000000000051
:1005AD00900080E4F0A3E4F0120C1DD2B0D2B1C2E1
:1005BD00B520B01775A280120C397B017A00791124
:1005CD007D04120922120C9275A24090005DE0FE8E
:1005DD00A3E0FFEE30E71D7B017A00794990005DC5
:1005ED00E0FEA3E0FFEF54FFFD12092290005DE451
:1005FD00F0A3E4F090005DE0FEA3E0FFEE30E60432
:0B060D00C2B38002D2B3B2B280A522BB
:1004AB0049003A00000000000000000048003180C5
:1004BB0080808386898C8F490026FF08DCFF07A785
:1004CB00FF0BE14300436C800041003907410025DD
:0904DB000C4100480141004707F3
:08089400900088EEF0A3EFF0E4
:10089C0090008874FF75F0FF12014BAFF0FEEF4E25
:1008AC00602D90008AE4F0A3E4F090008AE0FEA3AF
:1008BC00E0FFC3EF94E8EE6480948350D390008BF8
:0F08CC00E004F0700690008AE004F080DD80C147
:0108DB0022FA
:100C4E00C2947FC87E00120894D2947FF47E011263
:030C5E00089422D5
:100BE1009000BBEFF09000BBE0FFEF1201B10BF9F9
:0E0BF100000BFC0100000BFEC29522D29522E3
:0508DC0090009BEFF00D
:1008E10090009CE4F090009CE0FF7E00C3EF940830
:1008F100EE64809480502990009BE0FFEF30E70484
:10090100D2938002C293D29290009BE0FFEF25E048
:10091100FF90009BEFF0C29290009CE004F080C534
:0109210022B3
:1007A70090009DE4F090009EE4F090009EE0FF7EB4
:1007B70000C3EF9408EE64809480502BD29290008F
:1007C7009DE0FFEF25E0FF90009DEFF030900E9049
:1007D700009DE0FFEF4401FF90009DEFF0C2929073
:0C07E700009EE004F080C390009DE0FF45
:0107F30022E3
:0507460090009FEFF0A0
:10074B00900040E0FBA3E0FAA3E0F989828A837F63
:10075B00001201DB90009FE0FFEF547FFF90003A07
:10076B00E0FBA3E0FAA3E0F989828A831201DB9014
:10077B00003DE0FBA3E0FAA3E0F91201D79000A043
:10078B00EFF0900040E0FBA3E0FAA3E0F989828A46
:0B079B00837F011201DB9000A0E0FF53
:0107A6002230
:050960009000A1EFF082
:100965007F011207469000A2EFF09000A2E0FFEF92
:1009750054F8FF9000A2EFF09000A2E0FF9000A1D4
:10098500E0FEEF4EFF9000A2EFF09000A2E0FD7FA9
:040995000112067EC7
:01099900223B
:10067E009000A3EFF09000A4EDF0900040E0FBA3FB
:10068E00E0FAA3E0F989828A837F001201DB9000F1
:10069E00A3E0FFEF4480FF90003AE0FBA3E0FAA353
:1006AE00E0F989828A831201DB9000A4E0FF9000BA
:1006BE003AE0FBA3E0FAA3E0F989828A831201DB18
:1006CE00900040E0FBA3E0FAA3E0F989828A837FE1
:0506DE00011201DB2206
:1003C100900098EBF0A3EAF0A3E9F0900098E0FB2D
:1003D100A3E0FAA3E0F9120161AE02AF01EF4E60B2
:1003E10019900098E0FBA3E0FAA3E0F912016190F3
:1003F100003AEBF0A3EAF0A3E9F0900098E0FBA348
:10040100E0FAA3E0F9758203758300120181AE025F
:10041100AF01EF4E601F900098E0FBA3E0FAA3E06C
:10042100F975820375830012018190003DEBF0A301
:10043100EAF0A3E9F0900098E0FBA3E0FAA3E0F969
:10044100758206758300120181AE02AF01EF4E6025
:100451001F900098E0FBA3E0FAA3E0F9758206750E
:100461008300120181900040EBF0A3EAF0A3E9F0D0
:010471002268
:10000300900043E0FD7F0612067E900044E0FD7FF2
:0F0013000712067E900045E0FD7F0812067E2250
:050B16009000A5EFF0C6
:100B1B007F311207469000A6EFF09000A6E0FFEFA2
:100B2B0054F8FF9000A5E0FEEF4EFF9000A6EFF00B
:0A0B3B009000A6E0FD7F3112067E57
:010B4500228D
:05099A009000A7EFF042
:10099F007F03120B167F1E1207469000A8EFF090F0
:1009AF0000A7E0FFEFC454F0FF9000A8E0FEEE5464
:1009BF000FFEEF4EFF9000A8EFF09000A8E0FD7F34
:0409CF001E12067E70
:0109D3002201
:050AB0009000A9EFF029
:100AB5007F1D1207469000AAEFF09000A9E0FFEF16
:100AC50025E0FF9000AAE0FEEE54F1FEEF4EFF9008
:0E0AD50000AAEFF09000AAE0FD7F1D12067E41
:010AE30022F0
:050A7B009000ABEFF05C
:100A80007F1D1207469000ACEFF09000ABE0FFEF47
:100A9000C454F0FF9000ACE0FEEE540FFEEF4EFFAA
:0F0AA0009000ACEFF09000ACE0FD7F1D12067EE1
:010AAF002224
:050B46009000ADEFF08E
:100B4B007F1D1207469000AEEFF09000AEE0FFEF76
:100B5B0054FEFF9000ADE0FEEF4EFF9000AEEFF0C5
:0A0B6B009000AEE0FD7F1D12067E33
:010B7500225D
:100C72009000BCEFF09000BCE0FD7F2212067E22C5
:0806E30090008CEEF0A3EFF093
:1006EB007F1E12074690008EEFF07F1F1207469079
:1006FB00008FEFF090008CE0FEA3E0FFEEFF7E009A
:10070B00EF5403FF90008EE0FEEE54FCFEEE4FFF25
:10071B0090008EEFF090008CE0FEA3E0FFEF54FF13
:10072B00FF90008FEFF090008EE0FD7F1E12067E93
:0A073B0090008FE0FD7F1F12067E84
:010745002291
:050A0E009000AFEFF0C5
:100A13007F261207469000B0EFF09000AFE0FFEFA3
:100A230033333354F8FF9000B0E0FEEE54F7FEEF9B
:100A33004EFF9000B0EFF09000B0E0FD7F2612066D
:010A43007E34
:010A4400228F
:100B76007F011209607D9F7F1112067E7DFF7F2413
:100B860012067E7D007F4012067E7D007F411206A2
:070B96007E7F0512096022B9
:050A45009000B1EFF08C
:100A4A007F1E1207469000B2EFF09000B1E0FFEF70
:100A5A0025E025E0FF9000B2E0FEEE54FBFEEF4EEB
:100A6A00FF9000B2EFF09000B2E0FD7F1E12067E0A
:010A7A002259
:0509D4009000B3EFF0FC
:1009D9007F011207469000B4EFF09000B4E0FFEFFA
:1009E900547FFF9000B4EFF09000B4E0FF9000B3A3
:1009F900E0FEEF4EFF9000B4EFF09000B4E0FD7F11
:040A09000112067E52
:010A0D0022C6
:100B9D009000BDEFF07D877F4D12067E9000BDE089
:100BAD00FF74312FF582E43400F583E0FD7F0912E7
:030BBD00067E228F
:100618007F001209607F801209D47F011209607D72
:10062800007F4012067E7D007F4012067E7D007F9F
:100638004112067E120003900039E0FF120B9D90D4
:100648000025E0FF12099A900048E0FF120AB07FE7
:1006580001120A45900047E0FF120A7B7F00120B47
:10066800467FFF120C727FFF7E031206E37F0112A2
:060678000A0E120B7622AF
:1002EF00900083EBF0A3EAF0A3E9F0900086EDF025
:1002FF007F011209607D007F2412067E7DF77F113A
:10030F0012067E900086E0FD7F2212067E7D007F22
:10031F000E12067E7D007F0D12067E900040E0FBE0
:10032F00A3E0FAA3E0F989828A837F001201DB90B0
:10033F00003AE0FBA3E0FAA3E0F989828A837F8089
:10034F001201DB900087E4F0900086E0FF900087B9
:10035F00E0FEEEC39F5033900083E0FBA3E0FAA3CF
:10036F00E0F912011CFF90003AE0FBA3E0FAA3E0D2
:10037F00F989828A831201DB900084E475F00112FF
:10038F000135900087E004F080BE900040E0FBA3B1
:10039F00E0FAA3E0F989828A837F011201DB7D40B5
:1003AF007F4012067E7D007F4112067E7F03120979
:0103BF0060DD
:0103C000221A
:1004E40042005D00005400490000000000000000CC
:1004F40000000000000000000000000048005F71E0
:070504007765723F00000063
:100C1D00759850438E01438E0475D7D075D6FF431A
:0C0C2D008E1075A280D2ACD2AFC299220A
:050BFF009000B5EFF0CD
:100C04002000FD9000B5E0FF9000B6EFF0C29BD24B
:080C1400009000B6E0FF8F998B
:010C1C0022B5
:10092200900090EBF0A3EAF0A3E9F0900093EDF0D1
:100932007FAA120BFF900093E0FF14F0EF60199072
:100942000090E0FBA3E475F00112014BA9F0FA124A
:0E095200011CFF120BFF80DD7FBB120BFF228A
:03002300020204D2
:0B020400C0E0C083C082C0D075D008ED
:10020F009000BEE4F0309904C299C20020980241D8
:10021F00E4C2989000BEE599F0C2B490005DE0FE94
:10022F00A3E0FFEE30E6669000BEE0FF7E00EF64D5
:10023F00BB4E702E90005DE0FEA3E0FFEE4480FE0B
:10024F0090005DEEF0A3EFF090005DE0FEA3E0FF05
:10025F00EE543FFE74492FF58274003EF583E4F0AF
:10026F00802B9000BEE0FF90005DE0FCA3E0FDEC72
:10027F00543FFC74492DF58274003CF583EFF090E8
:10028F00005EE004F0700690005DE004F09000BEA8
:10029F00E0FF7E00EF64AA4E701C90005DE4F0A3B7
:1002AF00E4F090005DE0FEA3E0FFEE4440FE90001E
:1002BF005DEEF0A3EFF090005DE0FEA3E0FFEE54E3
:1002CF003FFED3EF9414EE9400400C90005DE4F0E9
:0702DF00A3E4F08002D2B499
:0902E600D0D0D082D083D0E032E8
:100C61007591037592FC53B1FC43B204D2B7D2B66D
:010C71002260
:040CA000DD00530020
:08050B004100670041007C0083
:100C82007B017A0079261203C1120C4E1206182239
:100AE400900094EBF0A3EAF0A3E9F0900097EDF006
:100AF4007DFF7F1212067E900094E0FBA3E0FAA330
:100B0400E0F9900097E0FD1202EF7FF47E011208F5
:020B1400942229
:100800007BFF7A0C79A0C003C002C0017B017A0093
:1008100079B7A801AC02AD03D001D002D0037E00AD
:100820007F021200F67B017A0079B77D01120AE49B
:100830007F207E031208947B017A0079B77D011234
:090840000AE47F207E03120894F3
:01084900228C
:10084A007BFF7A0C79A2C003C002C0017B017A0047
:10085A0079B9A801AC02AD03D001D002D0037E0061
:10086A007F021200F67B017A0079B97D02120AE44E
:10087A007F327E001208947B017A0079B97D0212D8
:09088A000AE47F327E001208949A
:010893002242
:0D0C92000000007510341510AF10EF70F960
:010C9F002232
:100BC000000075110975126875138B1513AF13EFBB
:100BD00070F91512AF12EF70F21511AF11EF70EB43
:010BE00022F2
:100C390075146C7515911515AF15EF70F91514AF7D
:040C490014EF70F242
:010C4D002284
:0D05130042007E000041007D00410082009A
:0907F40020B1037FFF227F0022E7
:03000000020521D5
:0C052100787FE4F6D8FD758120020568A3
:10002600E709F608DFFA8046E709F208DFFA803EBC
:1000360088828C83E709F0A3DFFA8032E309F608A9
:10004600DFFA8078E309F208DFFA807088828C8311
:10005600E309F0A3DFFA806489828A83E0A3F608C5
:10006600DFFA805889828A83E0A3F208DFFA804C9F
:1000760080D280FA80C680D4806980F28033801076
:1000860080A680EA809A80A880DA80E280CA8033DF
:1000960089828A83ECFAE493A3C8C582C8CCC58357
:1000A600CCF0A3C8C582C8CCC583CCDFE9DEE78027
:1000B6000D89828A83E493A3F608DFF9ECFAA9F0A6
:1000C600EDFB2289828A83ECFAE0A3C8C582C8CCFC
:1000D600C583CCF0A3C8C582C8CCC583CCDFEADE15
:1000E600E880DB89828A83E493A3F208DFF980CC77
:1000F60088F0EF60010E4E60C388F0ED2402B40470
:100106000050B9F582EB2402B4040050AF23234516
:06011600822390007673C5
:10011C00BB010689828A83E0225002E722BBFE02E1
:09012C00E32289828A83E4932214
:10013500C5F0F8A3E028F0C5F0F8E5821582700255
:060145001583E038F022F2
:10014B00A3F8E0C5F025F0F0E58215827002158367
:06015B00E0C838F0E822C4
:10016100BB010789828A830201E65005E9F8020191
:10017100DDBBFE05E9F80201EF89828A830201F8FD
:10018100BB010DE58229F582E5833AF5830201E69B
:100191005007E92582F80201DDBBFE07E92582F857
:1001A1000201EFE58229F582E5833AF5830201F840
:1001B100D083D082F8E4937012740193700DA3A3DD
:1001C10093F8740193F5828883E4737402936860F1
:0601D100EFA3A3A380DFF1
:0601D7008A838982E473B3
:10052D000205ADE493A3F8E493A34003F68001F232
:10053D0008DFF48029E493A3F85407240CC8C333CF
:10054D00C4540F4420C8834004F456800146F6DF9E
:10055D00E4800B0102040810204080900472E47EB8
:10056D00019360BCA3FF543F30E509541FFEE49393
:10057D00A360010ECF54C025E060A840B8E493A35A
:10058D00FAE493A3F8E493A3C8C582C8CAC583CA85
:10059D00F0A3C8C582C8CAC583CADFE9DEE780BE3D
:0105200000DA
:0901DD00E6FB08E6FA08E6F92247
:0901E600E0FBA3E0FAA3E0F9221A
:0901EF00E2FB08E2FA08E2F92241
:0C01F800E493FB740193FA740293F92263
:00000001FF
