:1005E10048002D0000000000000000420027003CF0
:1005F100420025001A420029000B42002B00584CF2
:100601000035000000000000000000000000410073
:020611002400C3
:10079300120BDD120C08120C29E4900079F0A3F07F
:1007A300C2B7C390007AE09419900079E0940050A6
:1007B300F1900077E0FEA3E0FFC390007AE09FFF93
:1007C300900079E09EFEC3EF9401EE940040141272
:1007D30009BF900079E0FFA3E0900077CFF0A3EF8B
:0907E300F0B2B612023D80BA2208
:100C19000D0A696E69742066696E6973680D0A0048
:1006130049001500000000000000000048000C80A5
:1006230080808386898C8F490001FF0A5BFF0ADF84
:10063300FF0C5743001E68B7A64100140741000092
:090643000C4100230141002207D3
:1007EC00C294120C39120C39D294120C39120C39E5
:0407FC00120C392280
:0D0C5700EF146006047005C29522D29522AC
:100A5B00E4FEEEC39408748094805015EF30E704E5
:100A6B00D2938002C293D292EF25E0FFC2920E8006
:010A7B00E199
:010A7C002257
:100ADF00E4FFFEEEC39408748094805011D292EF1D
:0E0AEF0025E0FF3090034401FFC2920E80E527
:010AFD0022D6
:0508BE00900080EFF046
:1008C30090001B1201A089828A83E4FF12021D900B
:1008D3000080E0547FFF9000151201A089828A8373
:1008E30012021D9000181201A0120219900081EF4C
:1008F300F090001B1201A089828A837F0112021DDE
:05090300900081E0FFFF
:0109080022CC
:050B5A0090007EEFF0A9
:100B5F007F011208BEEF54F8FF90007EE04FFFFDBB
:050B6F007F0112087176
:010B7400225E
:10087100900080EFF0A3EDF090001B1201A089829F
:100881008A83E4FF12021D900080E04480FF900003
:10089100151201A089828A8312021D900081E0FF56
:1008A1009000151201A089828A8312021D90001BFB
:0D08B1001201A089828A837F0112021D229C
:1009090090007C1201C090007C1201A01201C9E97B
:100919004A60069000151201C090007C1201A09057
:1009290000031201E9E94A60069000181201C0901B
:10093900007C1201A09000061201E9E94A600690C4
:06094900001B1201C02298
:100AFE0090001EE0FD7F0612087190001FE0FD7F42
:0F0B0E0007120871900020E0FD7F081208712285
:050B750090007DEFF08F
:100B7A007F311208BEEF54F8FE90007DE04EFFFD73
:050B8A007F311208712B
:010B8F002243
:050A370090007CEFF0CF
:100A3C007F03120B757F1E1208BE90007CE0FEC473
:0E0A4C0054F0FEEF540F4EFFFD7F1E12087196
:010A5A002279
:050B3C0090007CEFF0C9
:100B41007F1D1208BE90007CE0FE25E0FEEF54F10F
:080B51004EFFFD7F1D1208712B
:010B59002279
:050B1D0090007CEFF0E8
:100B22007F1D1208BE90007CE0FEC454F0FEEF541C
:090B32000F4EFFFD7F1D1208713A
:010B3B002297
:050B900090007CEFF075
:100B95007F1D1208BEEF54FEFE90007CE04EFFFD67
:050BA5007F1D12087124
:010BAA002228
:080C6E00AD077F22120871227C
:08094F0090007CEEF0A3EFF034
:100957007F1E1208BE90007EEFF07F1F1208BE9028
:10096700007FEFF090007CE0FCA3E0FDEC5403FF78
:10097700A3E054FC4FF0EDA3F090007EE0FD7F1E56
:0D09870012087190007FE0FD7F1F120871C3
:010994002240
:050A7D0090007CEFF089
:100A82007F261208BE90007CE0FE33333354F8FE1A
:0B0A9200EF54F74EFFFD7F26120871A5
:010A9D002236
:100A10007F01120B5A7D9F7F111208717DFF7F2489
:100A2000120871E4FD7F40120871E4FD7F41120855
:070A3000717F05120B5A2231
:0500030090007CEFF00D
:100008007F1E1208BE90007CE0FE25E025E0FEEF92
:0A00180054FB4EFFFD7F1E1208711D
:0100220022BB
:050BAB0090007CEFF05A
:100BB0007F011208BEEF547FFF90007CE04FFFFDE5
:050BC0007F0112087125
:010BC500220D
:100A9E0090007CEFF07D877F4D12087190007CE016
:100AAE00240CF582E43400F583E0FD7F0912087111
:010ABE002215
:10080000E4FF120B5A7F80120BAB7F01120B5AE4EC
:10081000FD7F40120871E4FD7F40120871E4FD7F06
:1008200041120871120AFE900014E0FF120A9E9015
:100830000000E0FF120A37900023E0FF120B3C7F1C
:1008400001120003900022E0FF120B1DE4FF120BC7
:10085000907FFF120C6E7FFF7E0312094F7F011203
:100860000A7D120A107BFF7A0C79197D1012099506
:010870002265
:0B0531009000821201C0900085EDF0E8
:10053C007F01120B5AE4FD7F241208717DF77F11A5
:10054C00120871900085E0FD7F22120871E4FD7F96
:10055C000E120871E4FD7F0D12087190001B120140
:10056C00A089828A83E4FF12021D9000151201A05B
:10057C0089828A837F8012021DE4900086F09000AD
:10058C0085E0FFA3E0C39F50299000821201A012C6
:10059C00011CFF9000151201A089828A8312021D92
:1005AC00900083E475F00112018A900086E004F05B
:1005BC0080CC90001B1201A089828A837F011202D9
:1005CC001D7D407F40120871E4FD7F411208717F50
:0405DC0003120B5AA1
:0105E00022F8
:10064C004200550000540041000000000000000072
:0C065C0000000000000000000000000092
:100BDD0075985075D7D075D6FF758E14438E01D28A
:060BED00ACD2AFC2992258
:090C64002000FDC29BD2008F9913
:010C6D002264
:1009950090007C1201C07FAA120C64AF051DEF60A8
:1009A5001390007CE475F0011201A912011CFF12DD
:0A09B5000C6480E77FBB120C642283
:0300230002047E56
:0D047E00C0E0C0F0C083C082C0D075D008BF
:10048B00E4FF309904C299C200209802A126C298B9
:10049B00AF99900055E0FCA3E0FDEC30E651EF6422
:1004AB00BB702EEC4480FC900055F0A3EDF0FDECFE
:1004BB00543FFC74412DF58274003CF583E4F090BD
:1004CB000041E0900079F0900042E090007AF080DB
:1004DB001E900055E0543FFCA3E02441F5827400CC
:1004EB003CF583EFF0900055E475F00112018AEFB3
:1004FB0064AA700F900055F0A3F07440900055F073
:10050B00E4A3F0900055E0543FFEA3E0D39414EE27
:0B051B0094004007900055E4F0A3F0AE
:0B052600D0D0D082D083D0F0D0E032E3
:100C08007591037592FC53B1FC43B204D2B7D2B6C6
:010C180022B9
:080C7600000000000000000076
:080668004100570041006C0045
:100C29007B017A0079011209091207EC12080022E6
:1009E8009000871201C090008AEDF07DFF7F1212FF
:1009F80008719000871201A090008AE0FD1205316D
:080A08007FF47E01120ABF22F7
:10023D00E490007CF0A3F07F121208BE90000AEF4C
:10024D00F0D39400748094805002618BE05440642C
:10025D0040600241F77F1E1208BE900021EFF02092
:10026D00E0026178E4FD7F0D1208717F131208BE64
:10027D0090000BEFF090001B1201A089828A83E49D
:10028D00FF12021D9000151201A089828A83E4FFDE
:10029D0012021DE490007CF090000BE0FF90007CBA
:1002AD00E0C39F50209000181201A0120219900077
:1002BD007CE02458F582E43400F583EFF090007C67
:1002CD00E004F080D390001B1201A089828A837F05
:1002DD000112021D90007CE02458F582E43400F5F3
:1002ED0083E4F0120A10C2B7617890000AE0FF545F
:1002FD000464047050EF5401640170287F01120BE7
:10030D005A7D9F7F111208717DFF7F241208717D28
:10031D00027F40120871E4FD7F411208717F0512C2
:10032D000B5A80477F01120B5A7DFF7F1112087106
:10033D00E4FD7F40120871E4FD7F41120871E4FF76
:10034D00120B5A80267F01120B5A7D9F7F111208C6
:10035D00717DFF7F241208717D027F40120871E4C8
:10036D00FD7F411208717F05120B5AE490007CF05D
:10037D007DFF7F12120871120C39120C3922D2B77F
:01038D00224D
:10070A00900079E0FEA3E0FF7C007D0B120135EF3B
:10071A007803C333CE33CED8F9FF900076E06E70FB
:10072A0003A3E06F6062C2B712023D90006CE0045E
:10073A00F0900058E0645A600D90006CE0C394F4A5
:10074A007480948140E2900079E0FEA3E0FF7C008F
:10075A007D0B120135EF7803C333CE33CED8F9FFC0
:10076A00900076EEF0A3EFF090006CE0C394F4747E
:10077A00809481500ED2B790007B7401F0E490000F
:09078A006CF022E490007BF022E7
:10038E00786D7C007D017BFF7A0C79767E007F088C
:10039E001200F6E4900075F0900079E0FEA3E0FF05
:1003AE007C007D0B120135EF7803C333CE33CED8EC
:1003BE00F9FF900076E0B50633A3E0B5072E900066
:1003CE0079E0FEA3E0FF900077E06E7003A3E06F8C
:1003DE0060C690006D7443F0A3744EF07B017A00FA
:1003EE00796D7D021209E812023D80AC7F3F120842
:1003FE00BE900075EFF054026402601790006D74A9
:10040E0043F0A37452F07B017A00796D7D021209DC
:10041E00E8C2B612023D7F3F1208BE900075EFF0A3
:10042E00900077E0FEA3E0FFC390007AE09FFF907C
:10043E000079E09EFED3EF9401EE94004013E0FFAE
:10044E00A3E0900077CFF0A3EFF090006CE004F003
:10045E0022900075E05402640270B81209BF900039
:0F046E0079E0FFA3E0900077CFF0A3EFF0D2B6D4
:01047D00225C
:1009BF0090007AE020E01090001E7468F0A374B7E6
:1009CF00F0A374A6F0800E90001E7475F0A37453FC
:0909DF00F0A3747AF0120C292235
:100BC60000007D167C80EF1FAA0670011E4A600693
:060BD600DCFEDDFC80F0F6
:010BDC0022F6
:100ABF00EF1FAA0670011E4A6015E4FCFDC3ED94FA
:0F0ACF00E8EC6480948350E80DBD00010C80EECC
:010ADE0022F5
:0E0C390000007F097E687D8BDDFEDEFCDFFAA9
:010C4700228A
:100BF300000075101A7511377512ABD512FDD5119A
:040C0300FAD510F717
:010C070022CA
:0E0C480000007F557E0C7D9BDDFEDEFCDFFA9A
:010C5600227B
:0D06700042007700004100760041007B0051
:0300000002067E77
:0C067E00787FE4F6D8FD7581200206C5E7
:10002600E709F608DFFA8046E709F208DFFA803EBC
:1000360088828C83E709F0A3DFFA8032E309F608A9
:10004600DFFA8078E309F208DFFA807088828C8311
:10005600E309F0A3DFFA806489828A83E0A3F608C5
:10006600DFFA805889828A83E0A3F208DFFA804C9F
:1000760080D280FA80C680D4806980F28033801076
:1000860080A680EA809A80A880DA80E280CA8033DF
:1000960089828A83ECFAE493A3C8C582C8CCC58357
:1000A600CCF0A3C8C582C8CCC583CCDFE9DEE78027
:1000B6000D89828A83E493A3F608DFF9ECFAA9F0A6
:1000C600EDFB2289828A83ECFAE0A3C8C582C8CCFC
:1000D600C583CCF0A3C8C582C8CCC583CCDFEADE15
:1000E600E880DB89828A83E493A3F208DFF980CC77
:1000F60088F0EF60010E4E60C388F0ED2402B40470
:100106000050B9F582EB2402B4040050AF23234516
:06011600822390007673C5
:10011C00BB010689828A83E0225002E722BBFE02E1
:09012C00E32289828A83E4932214
:10013500BC000BBE0029EF8DF084FFADF022E4CCAE
:10014500F875F008EF2FFFEE33FEEC33FCEE9DEC77
:10015500984005FCEE9DFE0FD5F0E9E4CEFD22EDBD
:10016500F8F5F0EE8420D21CFEADF075F008EF2F07
:10017500FFED33FD4007985006D5F0F222C398FDF8
:050185000FD5F0EA2295
:10018A00C5F0F8A3E028F0C5F0F8E5821582700200
:06019A001583E038F0229D
:0901A000E0FBA3E0FAA3E0F92260
:1001A900F8E0FBA3A3E0F925F0F0E58215827002DF
:0701B9001583E0FA38F02283
:0901C000EBF0A3EAF0A3E9F02240
:1001C900BB010789828A830201A05005E9F802026E
:1001D9001FBBFE05E9F802022889828A83020231DF
:1001E900BB010DE58229F582E5833AF5830201A079
:1001F9005007E92582F802021FBBFE07E92582F8AC
:10020900020228E58229F582E5833AF58302023163
:060219008A838982E47370
:10068A00020793E493A3F8E493A34003F68001F2EC
:10069A0008DFF48029E493A3F85407240CC8C33371
:1006AA00C4540F4420C8834004F456800146F6DF40
:1006BA00E4800B01020408102040809005E1E47EEA
:1006CA00019360BCA3FF543F30E509541FFEE49335
:1006DA00A360010ECF54C025E060A840B8E493A3FC
:1006EA00FAE493A3F8E493A3C8C582C8CAC583CA27
:1006FA00F0A3C8C582C8CAC583CADFE9DEE780BEDF
:01067D00007C
:09021F00E6FB08E6FA08E6F92204
:09022800E2FB08E2FA08E2F92207
:0C023100E493FB740193FA740293F92229
:00000001FF
