:10046C0048002F0000000000000000420029003C62
:10047C00420027001A42002B000B42002D00584C62
:10048C0000380000000000000000000000004100E7
:0E049C002600410024004100250041003700E9
:10051500900073E4F0A3E4F0120C17120C40120CD7
:100525006112084D900073E0FEA3E0FFD3EF94192C
:10053500EE940050EC7B017A0079737D021207CDB1
:100545007B017A0079737D0212096F900037E00410
:10055500F0120C71900024EFF0900024E0FF7E0073
:10056500EF64FF4E600D900025E0FF7E00EF640113
:100575004E7018900074E004F07006900073E0046B
:10058500F0900025E4F0900037E4F0900073E0FE71
:10059500A3E0FFEF64014E7004C2B68002D2B6B28A
:0D05A500B77F647E001208E1A129A1262283
:1004AA0049001500000000000000000048000C8010
:1004BA0080808386898C8F490001FF0929FF080003
:1004CA00FF0BDB43001E6C80004100140741000053
:0904DA000C41002301410022073E
:0808E10090007BEEF0A3EFF0A4
:1008E90090007B74FF75F0FF12014BAFF0FEEF4EE5
:1008F900602D90007DE4F0A3E4F090007DE0FEA37C
:10090900E0FFC3EF94E8EE6480948350D390007EB7
:0F091900E004F0700690007DE004F080DD80C106
:0109280022AC
:100C2D00C2947FC87E001208E1D2947FF47E011237
:030C3D0008E122A9
:100BDB009000AEEFF09000AEE0FFEF1201B10BF31F
:0E0BEB00000BF60100000BF8C29522D29522F5
:0509290090008EEFF0CC
:10092E0090008FE4F090008FE0FF7E00C3EF9408FC
:10093E00EE64809480502990008EE0FFEF30E70443
:10094E00D2938002C293D29290008EE0FFEF25E008
:10095E00FF90008EEFF0C29290008FE004F080C501
:01096E002266
:10080000900090E4F0900091E4F0900091E0FF7E81
:1008100000C3EF9408EE64809480502BD292900035
:1008200090E0FFEF25E0FF900090EFF030900E9009
:100830000090E0FFEF4401FF900090EFF0C2929033
:0C0840000091E004F080C3900090E0FF05
:01084C002289
:05076C00900092EFF087
:1007710090001BE0FBA3E0FAA3E0F989828A837F62
:10078100001201DB900092E0FFEF547FFF90001513
:10079100E0FBA3E0FAA3E0F989828A831201DB90EE
:1007A1000018E0FBA3E0FAA3E0F91201D79000934F
:1007B100EFF090001BE0FBA3E0FAA3E0F989828A45
:0B07C100837F011201DB900093E0FF3A
:0107CC00220A
:0509AD00900094EFF042
:1009B2007F0112076C900095EFF0900095E0FFEF39
:1009C20054F8FF900095EFF0900095E0FF900094AE
:1009D200E0FEEF4EFF900095EFF0900095E0FD7F76
:0409E200011206A454
:0109E60022EE
:1006A400900096EFF0900097EDF090001BE0FBA314
:1006B400E0FAA3E0F989828A837F001201DB9000CB
:1006C40096E0FFEF4480FF900015E0FBA3E0FAA35F
:1006D400E0F989828A831201DB900097E0FF9000A1
:1006E40015E0FBA3E0FAA3E0F989828A831201DB17
:1006F40090001BE0FBA3E0FAA3E0F989828A837FE0
:05070400011201DB22DF
:1003BB0090008BEBF0A3EAF0A3E9F090008BE0FB4D
:1003CB00A3E0FAA3E0F9120161AE02AF01EF4E60B8
:1003DB001990008BE0FBA3E0FAA3E0F91201619006
:1003EB000015EBF0A3EAF0A3E9F090008BE0FBA380
:1003FB00E0FAA3E0F9758203758300120181AE0266
:10040B00AF01EF4E601F90008BE0FBA3E0FAA3E07F
:10041B00F9758203758300120181900018EBF0A32C
:10042B00EAF0A3E9F090008BE0FBA3E0FAA3E0F97C
:10043B00758206758300120181AE02AF01EF4E602B
:10044B001F90008BE0FBA3E0FAA3E0F97582067521
:10045B00830012018190001BEBF0A3EAF0A3E9F0FB
:01046B00226E
:1000030090001EE0FD7F061206A490001FE0FD7F16
:0F001300071206A4900020E0FD7F081206A42229
:050B3100900098EFF0B8
:100B36007F3112076C900099EFF0900099E0FFEF7B
:100B460054F8FF900098E0FEEF4EFF900099EFF00A
:0A0B5600900099E0FD7F311206A423
:010B60002272
:0509E70090009AEFF002
:1009EC007F03120B317F1E12076C90009BEFF0906F
:1009FC00009AE0FFEFC454F0FF90009BE0FEEE5431
:100A0C000FFEEF4EFF90009BEFF090009BE0FD7F00
:040A1C001E1206A4FC
:010A200022B3
:050AFD0090009CEFF0E9
:100B02007F1D12076C90009DEFF090009CE0FFEFBC
:100B120025E0FF90009DE0FEEE54F1FEEF4EFF90C7
:0E0B2200009DEFF090009DE0FD7F1D1206A4E7
:010B300022A2
:050AC80090009EEFF01C
:100ACD007F1D12076C90009FEFF090009EE0FFEFEE
:100ADD00C454F0FF90009FE0FEEE540FFEEF4EFF6A
:0F0AED0090009FEFF090009FE0FD7F1D1206A488
:010AFC0022D7
:050B61009000A0EFF080
:100B66007F1D12076C9000A1EFF09000A1E0FFEF4F
:100B760054FEFF9000A0E0FEEF4EFF9000A1EFF0C4
:0A0B86009000A1E0FD7F1D1206A4FF
:010B90002242
:100C51009000AFEFF09000AFE0FD7F221206A422DA
:0807090090007FEEF0A3EFF079
:100711007F1E12076C900081EFF07F1F12076C9013
:100721000082EFF090007FE0FEA3E0FFEEFF7E008D
:10073100EF5403FF900081E0FEEE54FCFEEE4FFF0C
:10074100900081EFF090007FE0FEA3E0FFEF54FF07
:10075100FF900082EFF0900081E0FD7F1E1206A461
:0A076100900082E0FD7F1F1206A445
:01076B00226B
:050A5B009000A2EFF085
:100A60007F2612076C9000A3EFF09000A2E0FFEF4A
:100A700033333354F8FF9000A3E0FEEE54F7FEEF5B
:100A80004EFF9000A3EFF09000A3E0FD7F2612063A
:010A9000A4C1
:010A91002242
:100B91007F011209AD7D9F7F111206A47DFF7F2485
:100BA1001206A47D007F401206A47D007F4112063B
:070BB100A47F051209AD222B
:050A92009000A4EFF04C
:100A97007F1E12076C9000A5EFF09000A4E0FFEF17
:100AA70025E025E0FF9000A5E0FEEE54FBFEEF4EAB
:100AB700FF9000A5EFF09000A5E0FD7F1E1206A4B1
:010AC700220C
:050A21009000A6EFF0BB
:100A26007F0112076C9000A7EFF09000A7E0FFEFA0
:100A3600547FFF9000A7EFF09000A7E0FF9000A67C
:100A4600E0FEEF4EFF9000A7EFF09000A7E0FD7FDD
:040A5600011206A4DF
:010A5A002279
:100BB8009000B0EFF07D877F4D1206A49000B0E062
:100BC800FF740C2FF582E43400F583E0FD7F0912F1
:030BD80006A4224E
:10063E007F001209AD7F80120A217F011209AD7D64
:10064E00007F401206A47D007F401206A47D007F2D
:10065E00411206A4120003900014E0FF120BB89092
:10066E000000E0FF1209E7900023E0FF120AFD7F71
:10067E0001120A92900022E0FF120AC87F00120BAC
:10068E00617FFF120C517FFF7E031207097F01125B
:06069E000A5B120B912221
:1002E900900076EBF0A3EAF0A3E9F0900079EDF045
:1002F9007F011209AD7D007F241206A47DF77F11CD
:100309001206A4900079E0FD7F221206A47D007FE9
:100319000E1206A47D007F0D1206A490001BE0FBBF
:10032900A3E0FAA3E0F989828A837F001201DB90B6
:100339000015E0FBA3E0FAA3E0F989828A837F80B4
:100349001201DB90007AE4F0900079E0FF90007AE6
:10035900E0FEEEC39F5033900076E0FBA3E0FAA3E2
:10036900E0F912011CFF900015E0FBA3E0FAA3E0FD
:10037900F989828A831201DB900077E475F0011212
:10038900013590007AE004F080BE90001BE0FBA3E9
:10039900E0FAA3E0F989828A837F011201DB7D40BB
:1003A9007F401206A47D007F411206A47F03120933
:0103B900AD96
:0103BA002220
:1004E30042005800005400440000000000000000D7
:0C04F300000000000000000000000000FD
:100C170075985075D7D075D6FF758E14438E01D24F
:060C2700ACD2AFC299221D
:050BF9009000A8EFF0E0
:100BFE002000FD9000A8E0FF9000A9EFF0C29BD26C
:080C0E00009000A9E0FF8F999E
:010C160022BB
:10096F00900083EBF0A3EAF0A3E9F0900086EDF09E
:10097F007FAA120BF9900086E0FF14F0EF60199038
:10098F000083E0FBA3E475F00112014BA9F0FA120A
:0E099F00011CFF120BF980DD7FBB120BF92249
:03002300020204D2
:0B020400C0E0C083C082C0D075D008ED
:10020F009000B1E4F0309904C299C20020980241E5
:10021F00E0C2989000B1E599F0900058E0FEA3E09D
:10022F00FFEE30E6669000B1E0FF7E00EF64BB4E5C
:10023F00702E900058E0FEA3E0FFEE4480FE900089
:10024F0058EEF0A3EFF0900058E0FEA3E0FFEE545D
:10025F003FFE74442FF58274003EF583E4F0802B4B
:10026F009000B1E0FF900058E0FCA3E0FDEC543F9C
:10027F00FC74442DF58274003CF583EFF090005927
:10028F00E004F07006900058E004F09000B1E0FF39
:10029F007E00EF64AA4E701C900058E4F0A3E4F0C7
:1002AF00900058E0FEA3E0FFEE4440FE900058EEB1
:1002BF00F0A3EFF0900058E0FEA3E0FFEE543FFEF6
:1002CF00D3EF9414EE94004008900058E4F0A3E4A8
:0102DF00F02E
:0902E000D0D0D082D083D0E032EE
:100C40007591037592FC53B1FC43B204D2B7D2B68E
:010C50002281
:040C7A00DD00530046
:0804FF0041005A0041006F00AA
:100C61007B017A0079011203BB120C2D12063E2280
:1007CD00900087EBF0A3EAF0A3E9F090008AEDF03A
:1007DD007DFF7F121206A4900087E0FBA3E0FAA331
:1007ED00E0F990008AE0FD1202E97FF47E01120823
:0207FD00E122F7
:10084D007BFF7A0C797AC003C002C0017B017A006C
:10085D0079AAA801AC02AD03D001D002D0037E006D
:10086D007F021200F67B017A0079AA7D011207CD75
:10087D007F207E031208E17B017A0079AA7D0112A7
:09088D0007CD7F207E031208E173
:01089600223F
:100897007BFF7A0C797CC003C002C0017B017A0020
:1008A70079ACA801AC02AD03D001D002D0037E0021
:1008B7007F021200F67B017A0079AC7D021207CD28
:1008C7007F327E001208E17B017A0079AC7D02124B
:0908D70007CD7F327E001208E11A
:0108E00022F5
:0D05070042007100004100700041007500CD
:090C710020B1037FFF227F002265
:030000000205B244
:0C05B200787FE4F6D8FD7581200205F981
:10002600E709F608DFFA8046E709F208DFFA803EBC
:1000360088828C83E709F0A3DFFA8032E309F608A9
:10004600DFFA8078E309F208DFFA807088828C8311
:10005600E309F0A3DFFA806489828A83E0A3F608C5
:10006600DFFA805889828A83E0A3F208DFFA804C9F
:1000760080D280FA80C680D4806980F28033801076
:1000860080A680EA809A80A880DA80E280CA8033DF
:1000960089828A83ECFAE493A3C8C582C8CCC58357
:1000A600CCF0A3C8C582C8CCC583CCDFE9DEE78027
:1000B6000D89828A83E493A3F608DFF9ECFAA9F0A6
:1000C600EDFB2289828A83ECFAE0A3C8C582C8CCFC
:1000D600C583CCF0A3C8C582C8CCC583CCDFEADE15
:1000E600E880DB89828A83E493A3F208DFF980CC77
:1000F60088F0EF60010E4E60C388F0ED2402B40470
:100106000050B9F582EB2402B4040050AF23234516
:06011600822390007673C5
:10011C00BB010689828A83E0225002E722BBFE02E1
:09012C00E32289828A83E4932214
:10013500C5F0F8A3E028F0C5F0F8E5821582700255
:060145001583E038F022F2
:10014B00A3F8E0C5F025F0F0E58215827002158367
:06015B00E0C838F0E822C4
:10016100BB010789828A830201E65005E9F8020191
:10017100DDBBFE05E9F80201EF89828A830201F8FD
:10018100BB010DE58229F582E5833AF5830201E69B
:100191005007E92582F80201DDBBFE07E92582F857
:1001A1000201EFE58229F582E5833AF5830201F840
:1001B100D083D082F8E4937012740193700DA3A3DD
:1001C10093F8740193F5828883E4737402936860F1
:0601D100EFA3A3A380DFF1
:0601D7008A838982E473B3
:1005BE00020515E493A3F8E493A34003F68001F239
:1005CE0008DFF48029E493A3F85407240CC8C3333E
:1005DE00C4540F4420C8834004F456800146F6DF0D
:1005EE00E4800B010204081020408090046CE47E2D
:1005FE00019360BCA3FF543F30E509541FFEE49302
:10060E00A360010ECF54C025E060A840B8E493A3C8
:10061E00FAE493A3F8E493A3C8C582C8CAC583CAF3
:10062E00F0A3C8C582C8CAC583CADFE9DEE780BEAB
:0105140000E6
:0901DD00E6FB08E6FA08E6F92247
:0901E600E0FBA3E0FAA3E0F9221A
:0901EF00E2FB08E2FA08E2F92241
:0C01F800E493FB740193FA740293F92263
:00000001FF
