:1006510048007F00000000000000005800870000F3
:100661000000000000000000000000000000000089
:0606710000000000000083
:100C9300120E92120ED0120F02120B41C2B6120F95
:100CA30021120F21120A22120EE1D2B61204EF9082
:0E0CB30000DEE07004A3E0640160F180FE2228
:100EF2000D0A696E69742066696E6973680D0A006D
:1006770049007300000000000000000048006A8085
:1006870080808386898C8F49005CFF0D10FF0D9455
:10069700FF0F304300666C80004100720741005B2A
:0906A7000C41007E0141007D07B9
:100EBD00C2947FC87E00120D74D2947FF47E01120D
:030ECD000D74227F
:0D0F3000EF146006047005C29522D29522D0
:100D1000E4FEEEC39408748094805015EF30E7042D
:100D2000D2938002C293D292EF25E0FFC2920E804E
:010D3000E1E1
:010D3100229F
:100D9400E4FFFEEEC39408748094805011D292EF65
:0E0DA40025E0FF3090034401FFC2920E80E56F
:010DB200221E
:050B8D009000B4EFF040
:100B920090007912045289828A83E4FF1204CF9072
:100BA20000B4E0547FFF90007312045289828A835A
:100BB2001204CF9000761204521204CB9000B5EFCB
:100BC200F090007912045289828A837F011204CF45
:050BD2009000B5E0FFFA
:010BD70022FB
:050E0F009000B3EFF0BC
:100E14007F01120B8DEF54F8FF9000B3E04FFFFDFC
:050E24007F01120AF439
:010E290022A6
:100AF4009000B4EFF0A3EDF09000791204528982D3
:100B04008A83E4FF1204CF9000B4E04480FF900095
:100B14007312045289828A831204CF9000B5E0FFD5
:100B240090007312045289828A831204CF90007950
:0D0B340012045289828A837F011204CF22AD
:100BD80090009F12047290009F12045212047BE945
:100BE8004A600690007312047290009F120452909B
:100BF800000312049BE94A60069000761204729082
:100C0800009F12045290000612049BE94A60069065
:060C1800007912047222B3
:100DB300900066E0FD7F06120AF4900067E0FD7F75
:0F0DC30007120AF4900068E0FD7F08120AF4227C
:050E2A009000A0EFF0B4
:100E2F007F31120B8DEF54F8FE9000A0E04EFFFDC6
:050E3F007F31120AF4EE
:010E4400228B
:0507DB0090009FEFF00B
:1007E0007F03120E2A7F1E120B8D90009FE0FEC425
:0E07F00054F0FEEF540F4EFFFD7F1E120AF470
:0107FE0022D8
:050DF10090009FEFF0EF
:100DF6007F1D120B8D90009FE0FE25E0FEEF54F163
:080E06004EFFFD7F1D120AF4EE
:010E0E0022C1
:050DD20090009FEFF00E
:100DD7007F1D120B8D90009FE0FEC454F0FEEF5470
:090DE7000F4EFFFD7F1D120AF4FE
:010DF00022E0
:050E450090009FEFF09A
:100E4A007F1D120B8DEF54FEFE90009FE04EFFFDBA
:050E5A007F1D120AF4E7
:010E5F002270
:080F4700AD077F22120AF4221B
:080C1E0090009FEEF0A3EFF03F
:100C26007F1E120B8D9000A1EFF07F1F120B8D908F
:100C360000A2EFF090009FE0FCA3E0FDEC5403FF60
:100C4600A3E054FC4FF0EDA3F09000A1E0FD7F1E61
:0D0C5600120AF49000A2E0FD7F1F120AF4C4
:010C6300226E
:050D320090009FEFF0AE
:100D37007F26120B8D90009FE0FE33333354F8FE6D
:0B0D4700EF54F74EFFFD7F26120AF468
:010D5200227E
:100CE9007F01120E0F7D9F7F11120AF47DFF7F2471
:100CF900120AF4E4FD7F40120AF4E4FD7F41120A6E
:070D0900F47F05120E0F221A
:0500030090009FEFF0EA
:100008007F1E120B8D90009FE0FE25E025E0FEEF9D
:0A00180054FB4EFFFD7F1E120AF498
:0100220022BB
:050E600090009FEFF07F
:100E65007F01120B8DEF547FFF90009FE04FFFFD38
:050E75007F01120AF4E8
:010E7A002255
:100D530090009FEFF07D877F4D120AF490009FE093
:100D6300246AF582E43400F583E0FD7F09120AF476
:010D7300225D
:1009B300E4FF120E0F7F80120E607F01120E0FE410
:1009C300FD7F40120AF4E4FD7F40120AF4E4FD7F48
:1009D30041120AF4120DB3900072E0FF120D53900E
:1009E300005BE0FF1207DB90007EE0FF120DF17F5A
:1009F3000112000390007DE0FF120DD2E4FF120EFE
:100A0300457FFF120F477FFF7E03120C1E7F0112EB
:0F0A13000D32120CE97BFF7A0E79F2120C64227D
:0B072B009000AE1204729000B1EDF0DF
:100736007F01120E0FE4FD7F24120AF47DF77F116C
:10074600120AF49000B1E0FD7F22120AF4E4FD7F64
:100756000E120AF4E4FD7F0D120AF49000791204D9
:100766005289828A83E4FF1204CF900073120452E6
:1007760089828A837F801204CFE49000B2F09000D1
:10078600B1E0FFA3E0C39F50299000AE12045212BD
:10079600039BFF90007312045289828A831204CF4E
:1007A6009000AFE475F0011203D69000B2E004F0B9
:1007B60080CC90007912045289828A837F011204C8
:1007C600CF7D407F40120AF4E4FD7F41120AF47F98
:0407D60003120E0FED
:0107DA0022FC
:1006B0004200CA00005400B6000000000000000024
:0C06C0000000000000000000000000002E
:100E920075985075D7D075D6FF758E14438E01D2D2
:060EA200ACD2AFC29922A0
:090F3D002000FDC29BD2008F9937
:010F46002288
:100C640090009F1204727FAA120F3D90009F1204FD
:100C74005212039B601390009FE475F00112045B11
:0F0C840012039BFF120F3D80E27FBB120F3D2238
:03002300020800D0
:0D080000C0E0C0F0C083C082C0D075D00839
:10080D00E4FF309904C299C200209802019FC2985A
:10081D00AF99EFFD7C0064AA700F9000CAF0A3F0B1
:10082D0074409000CAF0E4A3F09000CAE0A330E653
:10083D0049ED64BB4C70259000CAE04480FCA3E0F8
:10084D00FD9000CAECF0A3EDF0FDEC543FFC74B646
:10085D002DF58274003CF583E4F0801E9000CAE013
:10086D00543FFCA3E024B6F58274003CF583EFF011
:10087D009000CAE475F0011203D69000CAE0543F0F
:10088D00FEA3E0D39414EE940040079000CAE4F068
:02089D00A3F0C6
:0B089F00D0D0D082D083D0F0D0E03267
:100ED0007591037592FC53B1FC43B204D2B7D2B6FC
:010EE00022EF
:080F4F0000000000000000009A
:1006CC004100000041005A00604500156C80006735
:1006DC0074DE68B7A66B3D376DC2C86F0590704865
:1006EC0059718B2172CDE97410B275537A7696429A
:1006FC0077D90B791BD37A5E9B7BA1647CE42C7E2F
:10070C0026F47F69BD80AC8581EF4D8332160000E5
:01071C0000DC
:100F02007B017A00795C120BD8120EBD1209B32252
:100CC1009000AA1204729000ADEDF07DFF7F121228
:100CD1000AF49000AA1204529000ADE0FD12072B15
:080CE1007FF47E01120D742264
:1004EF00E490009FF07F12120B8D900065EFF0D318
:1004FF009400748094805002C14EE0544064406078
:10050F0002A1B7C2B77F1E120B8D90007CEFF020B7
:10051F00E002C138E4FD7F0D120AF47F13120B8D38
:10052F00900069EFF090007912045289828A83E477
:10053F00FF1204CF90007312045289828A83E4FF62
:10054F001204CFE490009FF0900069E0FF90009FAD
:10055F00E0C39F50209000761204521204CB9000FB
:10056F009FE02401F582E43400F583EFF090009FC3
:10057F00E004F080D390007912045289828A837F3D
:10058F00011204CF90009FE02401F582E43400F5BE
:10059F0083E4F0900001E09000DEF0900002E09024
:1005AF0000DFF0120CE9C138900065E0FF540464DD
:1005BF00047050EF5401640170287F01120E0F7DFB
:1005CF009F7F11120AF47DFF7F24120AF47D027FB0
:1005DF0040120AF4E4FD7F41120AF47F05120E0F58
:1005EF0080477F01120E0F7DFF7F11120AF4E4FD89
:1005FF007F40120AF4E4FD7F41120AF4E4FF120E69
:10060F000F80267F01120E0F7D9F7F11120AF47D3E
:10061F00FF7F24120AF47D027F40120AF4E4FD7F6B
:10062F0041120AF47F05120E0FE490009FF07DFF38
:10063F007F12120AF4120F12120F12120F1222D27D
:01064F00B7F3
:010650002287
:100B41001204EF9000DEE07004A3E0640170F19004
:100B510000DFE020E01A90001BE0900066F09000BA
:100B61001CE0900067F090001DE0900068F0801894
:100B7100900033E0900066F0900034E0900067F060
:0C0B8100900035E0900068F0120F022296
:100EE100900066746CF0A37480F0E4A3F0120F021A
:010EF10022DE
:100A910078CC7C007D017BFF7A0F794F7E007F0847
:100AA1001203759000CC745AF07B017A0079CC7DE9
:100AB10001120CC11204EF900001E064437033A3F2
:100AC100E0644E602D9000CC745AF07B017A00797D
:100AD100CC7D01120CC1900001E0B4430CA3E0FFF6
:100AE1006452600EEF644A60097F0A7E00120E7B39
:020AF10080C2C1
:010AF30022E0
:100A2200E490009FF09000A8F0A3F07B017A007997
:100A3200D41209369000A07412F0A37423F0A374A8
:100A420034F0A37445F0A37456F0A37467F0A37452
:100A520078F0A37489F0E490009FF090009FE0C3C7
:100A620094057480948050267B017A0079A07D08D9
:100A7200120CC19000A8E475F0011203D6120F12F5
:0E0A8200120F1230B10890009FE004F080CDFA
:010A90002243
:080F570041458106426323D7E6
:040F5F00E4FEFF228B
:040F6300E4FEFF2287
:040F6700E4FEFF2283
:060936009000AA120472F9
:10093C0078AD7C007D017BFF7A0F79577E007F08B4
:10094C00120375E4FFFE7DC87C429000AD12044694
:10095C0012011EE4FBFAF9783F12002D12022490CA
:10096C0000AA120452EE8FF01203ECE4FFFE7DC8D5
:10097C007C429000B112044612011EE4FBFAF97895
:10098C003F12002D1202249000AA12045290000271
:10099C00EE8FF012040B90000474431203B4900019
:0609AC000574101203B4F3
:0109B2002222
:100E7B0000007D167C80EF1FAA0670011E4A6006DB
:060E8B00DCFEDDFC80F03E
:010E9100223E
:100D7400EF1FAA0670011E4A6015E4FCFDC3ED9442
:0F0D8400E8EC6480948350E80DBD00010C80EE14
:010D9300223D
:0E0F120000007F097E687D8BDDFEDEFCDFFACD
:010F200022AE
:100EA800000075101A7511377512ABD512FDD511E2
:040EB800FAD510F760
:010EBC002213
:0E0F210000007F557E0C7D9BDDFEDEFCDFFABE
:010F2F00229F
:0D071D004200DC00004100DB004100E00074
:10002600020290E86480F8E933E83360110460F076
:10003600ED33EC337009E8FCE9FDEAFEEBFF220440
:1000460060DED3EB9FEA9EE99DE8C2E78CF0C2F73B
:1000560095F0400CE8CCF8E9CDF9EACEFAEBCFFB07
:1000660012025B85D0F05804700320D5B3E8047003
:10007600075002B2D502029A92D5EC0460F7E4CC9E
:10008600C0E0C398F8603B94186008400DD0E0FBD0
:10009600020272E4FBFAC9FC8028E830E406E4C9EF
:1000A600FBE4CAFCE830E305E4C9CACBFCE8540724
:1000B6006010F8C3E913F9EA13FAEB13FBEC13FC2F
:1000C600D8F130F52FC3E49CFCEF9BFFEE9AFEEDD2
:1000D60099FDD0E0FBEF4E4D4C701222DB0302027D
:1000E60097EC2CFCEF33FFEE33FEED33FDED30E7FE
:1000F600EB020272EF2BFFEE3AFEED39FDD0E0FB8C
:1001060050130BBB000302029AED13FDEE13FEEF34
:0801160013FFEC13FC0202725E
:10011E00EC4D6011E8497017ED33EC3304600DE4DB
:10012E00FCFFFEFD22E933E8330470F80202901260
:10013E00025B58046009E4CC248150062850090261
:10014E00029A284003020297C0E0EB4A7044B9803D
:10015E0006D0E0FB020286EF4E701CBD8008EBFF5E
:10016E00EAFEE9FD80EBE98DF0A4FEE5F002020760
:10017E00E9CDF9EAFEEBFFEF89F0A4FCE5F0CE89BC
:10018E00F0A42EFFE435F0CD89F0A42DFEE435F079
:10019E008067EF4E7005BD80D780C3EF8BF0A4ACA7
:1001AE00F0EE8BF0A42CFCE435F0F8EF8AF0A42CE2
:1001BE00E5F038FCE433CB8DF0A42CFCE5F03BF8F5
:1001CE00EE8AF0A42CFCE5F038F8E433CF89F0A4E5
:1001DE002CFCE5F038CF3400CE89F0A42FFFE5F0EB
:1001EE003EFEE433C98DF0A42EFEE5F039CD8AF043
:1001FE00A42FFFE5F03EFEE43DFD33D0E0FB5007BB
:10020E000BBB000F02029AEC2CFCEF33FFEE33FE19
:06021E00ED33FD02027247
:10022400EDD2E7CD33EC3392D524814006E4FFFED2
:10023400FDFC22FCE4CFCECDCC24E0501174FF8031
:10024400EDC3CC13CCCD13CDCE13CECF13CF0470CE
:07025400F030D5DE02043892
:10025B00E9D2E7C933E833F892D5EDD2E7CD33ECE9
:07026B0033FC5002B2D52262
:10027200EC30E7100FBF000C0EBE00080DBD0004ED
:100282000BEB6014A2D5EB13FCED92E7FD2274FF99
:10029200FCFDFEFF22E480F8A2D574FF13FC7D80F2
:0302A200E480EF06
:030000000208AA49
:0C08AA00787FE4F6D8FD7581200208F18B
:1002A500E709F608DFFA8046E709F208DFFA803E3B
:1002B50088828C83E709F0A3DFFA8032E309F60828
:1002C500DFFA8078E309F208DFFA807088828C8390
:1002D500E309F0A3DFFA806489828A83E0A3F60844
:1002E500DFFA805889828A83E0A3F208DFFA804C1E
:1002F50080D280FA80C680D4806980F280338010F5
:1003050080A680EA809A80A880DA80E280CA80335D
:1003150089828A83ECFAE493A3C8C582C8CCC583D5
:10032500CCF0A3C8C582C8CCC583CCDFE9DEE780A5
:100335000D89828A83E493A3F608DFF9ECFAA9F024
:10034500EDFB2289828A83ECFAE0A3C8C582C8CC7A
:10035500C583CCF0A3C8C582C8CCC583CCDFEADE93
:10036500E880DB89828A83E493A3F208DFF980CCF5
:1003750088F0EF60010E4E60C388F0ED2402B404EE
:100385000050B9F582EB2402B4040050AF23234595
:0603950082239002F573C3
:10039B00BB010689828A83E0225002E722BBFE0260
:0903AB00E32289828A83E4932293
:1003B400F8BB010DE58229F582E5833AF583E8F07F
:1003C400225006E92582C8F622BBFE05E92582C82B
:0203D400F22213
:1003D600C5F0F8A3E028F0C5F0F8E58215827002B2
:0603E6001583E038F0224F
:1003EC00BB010A89828A83F0E5F0A3F0225006F75C
:0F03FC0009A7F01922BBFE06F3E5F009F3192259
:10040B00F8BB0111E58229F582E5833AF583E8F023
:10041B00E5F0A3F0225009E92582C8F608A6F022E0
:0D042B00BBFE09E92582C8F2E5F008F222C7
:0E043800C3E49FFFE49EFEE49DFDE49CFC22D5
:0C044600E0F8A3E0F9A3E0FAA3E0FB2239
:09045200E0FBA3E0FAA3E0F922AB
:10045B00F8E0FBA3A3E0F925F0F0E582158270022A
:07046B001583E0FA38F022CE
:09047200EBF0A3EAF0A3E9F0228B
:10047B00BB010789828A830204525005E9F8020402
:10048B00D1BBFE05E9F80204DA89828A830204E310
:10049B00BB010DE58229F582E5833AF5830204520F
:1004AB005007E92582F80204D1BBFE07E92582F843
:1004BB000204DAE58229F582E5833AF5830204E347
:0604CB008A838982E473BC
:1008B600020C93E493A3F8E493A34003F68001F2B9
:1008C60008DFF48029E493A3F85407240CC8C33343
:1008D600C4540F4420C8834004F456800146F6DF12
:1008E600E4800B0102040810204080900651E47E4B
:1008F600019360BCA3FF543F30E509541FFEE49307
:10090600A360010ECF54C025E060A840B8E493A3CD
:10091600FAE493A3F8E493A3C8C582C8CAC583CAF8
:10092600F0A3C8C582C8CAC583CADFE9DEE780BEB0
:01072A0000CE
:0904D100E6FB08E6FA08E6F92250
:0904DA00E2FB08E2FA08E2F92253
:0C04E300E493FB740193FA740293F92275
:00000001FF
